{
  "contractName": "basic",
  "abi": [
    {
      "inputs": [
        {
          "internalType": "uint256",
          "name": "_commission",
          "type": "uint256"
        }
      ],
      "stateMutability": "nonpayable",
      "type": "constructor"
    },
    {
      "anonymous": false,
      "inputs": [
        {
          "indexed": false,
          "internalType": "address",
          "name": "user",
          "type": "address"
        },
        {
          "indexed": false,
          "internalType": "uint256",
          "name": "amount",
          "type": "uint256"
        },
        {
          "indexed": false,
          "internalType": "uint256",
          "name": "balance",
          "type": "uint256"
        }
      ],
      "name": "Deposit",
      "type": "event"
    },
    {
      "anonymous": false,
      "inputs": [
        {
          "indexed": false,
          "internalType": "address",
          "name": "from",
          "type": "address"
        },
        {
          "indexed": false,
          "internalType": "address",
          "name": "to",
          "type": "address"
        },
        {
          "indexed": false,
          "internalType": "uint256",
          "name": "balance",
          "type": "uint256"
        }
      ],
      "name": "Transfer",
      "type": "event"
    },
    {
      "anonymous": false,
      "inputs": [
        {
          "indexed": false,
          "internalType": "address",
          "name": "user",
          "type": "address"
        },
        {
          "indexed": false,
          "internalType": "uint256",
          "name": "amount",
          "type": "uint256"
        },
        {
          "indexed": false,
          "internalType": "uint256",
          "name": "balance",
          "type": "uint256"
        }
      ],
      "name": "Withdraw",
      "type": "event"
    },
    {
      "inputs": [
        {
          "internalType": "uint256",
          "name": "",
          "type": "uint256"
        }
      ],
      "name": "Transactions",
      "outputs": [
        {
          "internalType": "uint256",
          "name": "id",
          "type": "uint256"
        },
        {
          "internalType": "uint256",
          "name": "timestamp",
          "type": "uint256"
        },
        {
          "internalType": "address",
          "name": "sender",
          "type": "address"
        },
        {
          "internalType": "address",
          "name": "receiver",
          "type": "address"
        },
        {
          "internalType": "uint256",
          "name": "amount",
          "type": "uint256"
        },
        {
          "internalType": "uint256",
          "name": "charges",
          "type": "uint256"
        },
        {
          "internalType": "string",
          "name": "status",
          "type": "string"
        }
      ],
      "stateMutability": "view",
      "type": "function",
      "constant": true
    },
    {
      "inputs": [
        {
          "internalType": "uint256",
          "name": "_amount",
          "type": "uint256"
        }
      ],
      "name": "depositToken",
      "outputs": [],
      "stateMutability": "nonpayable",
      "type": "function"
    },
    {
      "inputs": [],
      "name": "balanceOf",
      "outputs": [
        {
          "internalType": "uint256",
          "name": "",
          "type": "uint256"
        }
      ],
      "stateMutability": "view",
      "type": "function",
      "constant": true
    },
    {
      "inputs": [
        {
          "internalType": "address",
          "name": "addr",
          "type": "address"
        }
      ],
      "name": "findBalance",
      "outputs": [
        {
          "internalType": "uint256",
          "name": "",
          "type": "uint256"
        }
      ],
      "stateMutability": "view",
      "type": "function",
      "constant": true
    },
    {
      "inputs": [
        {
          "internalType": "uint256",
          "name": "_amount",
          "type": "uint256"
        }
      ],
      "name": "withdrawToken",
      "outputs": [],
      "stateMutability": "nonpayable",
      "type": "function"
    },
    {
      "inputs": [
        {
          "internalType": "address",
          "name": "to",
          "type": "address"
        },
        {
          "internalType": "uint256",
          "name": "amount",
          "type": "uint256"
        }
      ],
      "name": "transfer",
      "outputs": [
        {
          "internalType": "bool",
          "name": "",
          "type": "bool"
        }
      ],
      "stateMutability": "nonpayable",
      "type": "function"
    },
    {
      "inputs": [
        {
          "internalType": "uint256",
          "name": "_id",
          "type": "uint256"
        }
      ],
      "name": "getTransaction",
      "outputs": [
        {
          "components": [
            {
              "internalType": "uint256",
              "name": "id",
              "type": "uint256"
            },
            {
              "internalType": "uint256",
              "name": "timestamp",
              "type": "uint256"
            },
            {
              "internalType": "address",
              "name": "sender",
              "type": "address"
            },
            {
              "internalType": "address",
              "name": "receiver",
              "type": "address"
            },
            {
              "internalType": "uint256",
              "name": "amount",
              "type": "uint256"
            },
            {
              "internalType": "uint256",
              "name": "charges",
              "type": "uint256"
            },
            {
              "internalType": "string",
              "name": "status",
              "type": "string"
            }
          ],
          "internalType": "struct basic.transaction",
          "name": "",
          "type": "tuple"
        }
      ],
      "stateMutability": "view",
      "type": "function",
      "constant": true
    },
    {
      "inputs": [],
      "name": "getAllTransactions",
      "outputs": [
        {
          "components": [
            {
              "internalType": "uint256",
              "name": "id",
              "type": "uint256"
            },
            {
              "internalType": "uint256",
              "name": "timestamp",
              "type": "uint256"
            },
            {
              "internalType": "address",
              "name": "sender",
              "type": "address"
            },
            {
              "internalType": "address",
              "name": "receiver",
              "type": "address"
            },
            {
              "internalType": "uint256",
              "name": "amount",
              "type": "uint256"
            },
            {
              "internalType": "uint256",
              "name": "charges",
              "type": "uint256"
            },
            {
              "internalType": "string",
              "name": "status",
              "type": "string"
            }
          ],
          "internalType": "struct basic.transaction[]",
          "name": "",
          "type": "tuple[]"
        }
      ],
      "stateMutability": "view",
      "type": "function",
      "constant": true
    }
  ],
  "bytecode": "0x6080604052620186a0306040516200001790620000c4565b6200002492919062000214565b604051809103905ff0801580156200003e573d5f803e3d5ffd5b5060025f6101000a81548173ffffffffffffffffffffffffffffffffffffffff021916908373ffffffffffffffffffffffffffffffffffffffff1602179055503480156200008a575f80fd5b506040516200399d3803806200399d8339818101604052810190620000b091906200029c565b806003819055505f808190555050620002cc565b61167f806200231e83390190565b5f82825260208201905092915050565b7f52697a7a6c6572000000000000000000000000000000000000000000000000005f82015250565b5f62000118600783620000d2565b91506200012582620000e2565b602082019050919050565b7f52495a5a000000000000000000000000000000000000000000000000000000005f82015250565b5f62000166600483620000d2565b9150620001738262000130565b602082019050919050565b5f819050919050565b5f819050919050565b5f819050919050565b5f620001b9620001b3620001ad846200017e565b62000190565b62000187565b9050919050565b620001cb8162000199565b82525050565b5f73ffffffffffffffffffffffffffffffffffffffff82169050919050565b5f620001fc82620001d1565b9050919050565b6200020e81620001f0565b82525050565b5f6080820190508181035f8301526200022d816200010a565b90508181036020830152620002428162000158565b9050620002536040830185620001c0565b62000262606083018462000203565b9392505050565b5f80fd5b620002788162000187565b811462000283575f80fd5b50565b5f8151905062000296816200026d565b92915050565b5f60208284031215620002b457620002b362000269565b5b5f620002c38482850162000286565b91505092915050565b61204480620002da5f395ff3fe608060405234801561000f575f80fd5b5060043610610086575f3560e01c80636215be77116100595780636215be771461012a578063722713f714610146578063a9059cbb14610164578063cfba4fe01461019457610086565b806327506f531461008a57806333ea3dc8146100a857806334008b16146100d857806350baa6221461010e575b5f80fd5b6100926101c4565b60405161009f919061171b565b60405180910390f35b6100c260048036038101906100bd9190611769565b610381565b6040516100cf919061182d565b60405180910390f35b6100f260048036038101906100ed9190611769565b610570565b60405161010597969594939291906118b3565b60405180910390f35b61012860048036038101906101239190611769565b610681565b005b610144600480360381019061013f9190611769565b610ae3565b005b61014e610f0e565b60405161015b9190611927565b60405180910390f35b61017e6004803603810190610179919061196a565b610fad565b60405161018b91906119c2565b60405180910390f35b6101ae60048036038101906101a991906119db565b6113e2565b6040516101bb9190611927565b60405180910390f35b60606001805480602002602001604051908101604052809291908181526020015f905b82821015610378578382905f5260205f2090600702016040518060e00160405290815f820154815260200160018201548152602001600282015f9054906101000a900473ffffffffffffffffffffffffffffffffffffffff1673ffffffffffffffffffffffffffffffffffffffff1673ffffffffffffffffffffffffffffffffffffffff168152602001600382015f9054906101000a900473ffffffffffffffffffffffffffffffffffffffff1673ffffffffffffffffffffffffffffffffffffffff1673ffffffffffffffffffffffffffffffffffffffff16815260200160048201548152602001600582015481526020016006820180546102e990611a33565b80601f016020809104026020016040519081016040528092919081815260200182805461031590611a33565b80156103605780601f1061033757610100808354040283529160200191610360565b820191905f5260205f20905b81548152906001019060200180831161034357829003601f168201915b505050505081525050815260200190600101906101e7565b50505050905090565b610389611483565b5f8211801561039957505f548211155b6103d8576040517f08c379a00000000000000000000000000000000000000000000000000000000081526004016103cf90611aad565b60405180910390fd5b5f600183815481106103ed576103ec611acb565b5b905f5260205f2090600702019050806040518060e00160405290815f820154815260200160018201548152602001600282015f9054906101000a900473ffffffffffffffffffffffffffffffffffffffff1673ffffffffffffffffffffffffffffffffffffffff1673ffffffffffffffffffffffffffffffffffffffff168152602001600382015f9054906101000a900473ffffffffffffffffffffffffffffffffffffffff1673ffffffffffffffffffffffffffffffffffffffff1673ffffffffffffffffffffffffffffffffffffffff16815260200160048201548152602001600582015481526020016006820180546104e890611a33565b80601f016020809104026020016040519081016040528092919081815260200182805461051490611a33565b801561055f5780601f106105365761010080835404028352916020019161055f565b820191905f5260205f20905b81548152906001019060200180831161054257829003601f168201915b505050505081525050915050919050565b6001818154811061057f575f80fd5b905f5260205f2090600702015f91509050805f015490806001015490806002015f9054906101000a900473ffffffffffffffffffffffffffffffffffffffff1690806003015f9054906101000a900473ffffffffffffffffffffffffffffffffffffffff169080600401549080600501549080600601805461060090611a33565b80601f016020809104026020016040519081016040528092919081815260200182805461062c90611a33565b80156106775780601f1061064e57610100808354040283529160200191610677565b820191905f5260205f20905b81548152906001019060200180831161065a57829003601f168201915b5050505050905087565b5f6064826003546106929190611b25565b61069c9190611b93565b90505f82905081836106ae9190611bc3565b92508260025f9054906101000a900473ffffffffffffffffffffffffffffffffffffffff1673ffffffffffffffffffffffffffffffffffffffff1663ee21aa64336040518263ffffffff1660e01b815260040161070b9190611bf6565b602060405180830381865afa158015610726573d5f803e3d5ffd5b505050506040513d601f19601f8201168201806040525081019061074a9190611c23565b101561078b576040517f08c379a000000000000000000000000000000000000000000000000000000000815260040161078290611c98565b60405180910390fd5b5f8081548092919060010191905055505f6040518060e001604052805f5481526020014281526020013373ffffffffffffffffffffffffffffffffffffffff1681526020013073ffffffffffffffffffffffffffffffffffffffff1681526020018381526020018481526020016040518060400160405280600681526020017f4641494c45440000000000000000000000000000000000000000000000000000815250815250905060025f9054906101000a900473ffffffffffffffffffffffffffffffffffffffff1673ffffffffffffffffffffffffffffffffffffffff166323b872dd3330876040518463ffffffff1660e01b815260040161089193929190611cb6565b6020604051808303815f875af11580156108ad573d5f803e3d5ffd5b505050506040513d601f19601f820116820180604052508101906108d19190611d15565b6108d9575f80fd5b6040518060400160405280600a81526020017f5355434345535346554c000000000000000000000000000000000000000000008152508160c00181905250600181908060018154018082558091505060019003905f5260205f2090600702015f909190919091505f820151815f0155602082015181600101556040820151816002015f6101000a81548173ffffffffffffffffffffffffffffffffffffffff021916908373ffffffffffffffffffffffffffffffffffffffff1602179055506060820151816003015f6101000a81548173ffffffffffffffffffffffffffffffffffffffff021916908373ffffffffffffffffffffffffffffffffffffffff1602179055506080820151816004015560a0820151816005015560c0820151816006019081610a079190611f0a565b5050507ff279e6a1f5e320cca91135676d9cb6e44ca8a08c0b88342bcdb1144f6511b568338560025f9054906101000a900473ffffffffffffffffffffffffffffffffffffffff1673ffffffffffffffffffffffffffffffffffffffff1663ee21aa64336040518263ffffffff1660e01b8152600401610a879190611bf6565b602060405180830381865afa158015610aa2573d5f803e3d5ffd5b505050506040513d601f19601f82011682018060405250810190610ac69190611c23565b604051610ad593929190611fd9565b60405180910390a150505050565b5f606482600354610af49190611b25565b610afe9190611b93565b90505f8290508183610b109190611bc3565b925060025f9054906101000a900473ffffffffffffffffffffffffffffffffffffffff1673ffffffffffffffffffffffffffffffffffffffff1663ee21aa64306040518263ffffffff1660e01b8152600401610b6c9190611bf6565b602060405180830381865afa158015610b87573d5f803e3d5ffd5b505050506040513d601f19601f82011682018060405250810190610bab9190611c23565b831115610bb6575f80fd5b5f8081548092919060010191905055505f6040518060e001604052805f5481526020014281526020013073ffffffffffffffffffffffffffffffffffffffff1681526020013373ffffffffffffffffffffffffffffffffffffffff1681526020018381526020018481526020016040518060400160405280600681526020017f4641494c45440000000000000000000000000000000000000000000000000000815250815250905060025f9054906101000a900473ffffffffffffffffffffffffffffffffffffffff1673ffffffffffffffffffffffffffffffffffffffff166323b872dd3033856040518463ffffffff1660e01b8152600401610cbc93929190611cb6565b6020604051808303815f875af1158015610cd8573d5f803e3d5ffd5b505050506040513d601f19601f82011682018060405250810190610cfc9190611d15565b610d04575f80fd5b6040518060400160405280600a81526020017f5355434345535346554c000000000000000000000000000000000000000000008152508160c00181905250600181908060018154018082558091505060019003905f5260205f2090600702015f909190919091505f820151815f0155602082015181600101556040820151816002015f6101000a81548173ffffffffffffffffffffffffffffffffffffffff021916908373ffffffffffffffffffffffffffffffffffffffff1602179055506060820151816003015f6101000a81548173ffffffffffffffffffffffffffffffffffffffff021916908373ffffffffffffffffffffffffffffffffffffffff1602179055506080820151816004015560a0820151816005015560c0820151816006019081610e329190611f0a565b5050507f90890809c654f11d6e72a28fa60149770a0d11ec6c92319d6ceb2bb0a4ea1a15338560025f9054906101000a900473ffffffffffffffffffffffffffffffffffffffff1673ffffffffffffffffffffffffffffffffffffffff1663ee21aa64336040518263ffffffff1660e01b8152600401610eb29190611bf6565b602060405180830381865afa158015610ecd573d5f803e3d5ffd5b505050506040513d601f19601f82011682018060405250810190610ef19190611c23565b604051610f0093929190611fd9565b60405180910390a150505050565b5f60025f9054906101000a900473ffffffffffffffffffffffffffffffffffffffff1673ffffffffffffffffffffffffffffffffffffffff1663ee21aa64336040518263ffffffff1660e01b8152600401610f699190611bf6565b602060405180830381865afa158015610f84573d5f803e3d5ffd5b505050506040513d601f19601f82011682018060405250810190610fa89190611c23565b905090565b5f80606483600354610fbf9190611b25565b610fc99190611b93565b90505f8390508184610fdb9190611bc3565b93505f8081548092919060010191905055505f6040518060e001604052805f5481526020014281526020013373ffffffffffffffffffffffffffffffffffffffff1681526020018773ffffffffffffffffffffffffffffffffffffffff1681526020018381526020018481526020016040518060400160405280600681526020017f4641494c45440000000000000000000000000000000000000000000000000000815250815250905060025f9054906101000a900473ffffffffffffffffffffffffffffffffffffffff1673ffffffffffffffffffffffffffffffffffffffff166330e0789e3388856040518463ffffffff1660e01b81526004016110e393929190611cb6565b6020604051808303815f875af11580156110ff573d5f803e3d5ffd5b505050506040513d601f19601f820116820180604052508101906111239190611d15565b61112b575f80fd5b60025f9054906101000a900473ffffffffffffffffffffffffffffffffffffffff1673ffffffffffffffffffffffffffffffffffffffff166330e0789e3330866040518463ffffffff1660e01b815260040161118993929190611cb6565b6020604051808303815f875af11580156111a5573d5f803e3d5ffd5b505050506040513d601f19601f820116820180604052508101906111c99190611d15565b6111d1575f80fd5b6040518060400160405280600a81526020017f5355434345535346554c000000000000000000000000000000000000000000008152508160c00181905250600181908060018154018082558091505060019003905f5260205f2090600702015f909190919091505f820151815f0155602082015181600101556040820151816002015f6101000a81548173ffffffffffffffffffffffffffffffffffffffff021916908373ffffffffffffffffffffffffffffffffffffffff1602179055506060820151816003015f6101000a81548173ffffffffffffffffffffffffffffffffffffffff021916908373ffffffffffffffffffffffffffffffffffffffff1602179055506080820151816004015560a0820151816005015560c08201518160060190816112ff9190611f0a565b5050507fddf252ad1be2c89b69c2b068fc378daa952ba7f163c4a11628f55a4df523b3ef338760025f9054906101000a900473ffffffffffffffffffffffffffffffffffffffff1673ffffffffffffffffffffffffffffffffffffffff1663ee21aa64336040518263ffffffff1660e01b815260040161137f9190611bf6565b602060405180830381865afa15801561139a573d5f803e3d5ffd5b505050506040513d601f19601f820116820180604052508101906113be9190611c23565b6040516113cd93929190611cb6565b60405180910390a16001935050505092915050565b5f60025f9054906101000a900473ffffffffffffffffffffffffffffffffffffffff1673ffffffffffffffffffffffffffffffffffffffff1663ee21aa64836040518263ffffffff1660e01b815260040161143d9190611bf6565b602060405180830381865afa158015611458573d5f803e3d5ffd5b505050506040513d601f19601f8201168201806040525081019061147c9190611c23565b9050919050565b6040518060e001604052805f81526020015f81526020015f73ffffffffffffffffffffffffffffffffffffffff1681526020015f73ffffffffffffffffffffffffffffffffffffffff1681526020015f81526020015f8152602001606081525090565b5f81519050919050565b5f82825260208201905092915050565b5f819050602082019050919050565b5f819050919050565b6115218161150f565b82525050565b5f73ffffffffffffffffffffffffffffffffffffffff82169050919050565b5f61155082611527565b9050919050565b61156081611546565b82525050565b5f81519050919050565b5f82825260208201905092915050565b5f5b8381101561159d578082015181840152602081019050611582565b5f8484015250505050565b5f601f19601f8301169050919050565b5f6115c282611566565b6115cc8185611570565b93506115dc818560208601611580565b6115e5816115a8565b840191505092915050565b5f60e083015f8301516116055f860182611518565b5060208301516116186020860182611518565b50604083015161162b6040860182611557565b50606083015161163e6060860182611557565b5060808301516116516080860182611518565b5060a083015161166460a0860182611518565b5060c083015184820360c086015261167c82826115b8565b9150508091505092915050565b5f61169483836115f0565b905092915050565b5f602082019050919050565b5f6116b2826114e6565b6116bc81856114f0565b9350836020820285016116ce85611500565b805f5b8581101561170957848403895281516116ea8582611689565b94506116f58361169c565b925060208a019950506001810190506116d1565b50829750879550505050505092915050565b5f6020820190508181035f83015261173381846116a8565b905092915050565b5f80fd5b6117488161150f565b8114611752575f80fd5b50565b5f813590506117638161173f565b92915050565b5f6020828403121561177e5761177d61173b565b5b5f61178b84828501611755565b91505092915050565b5f60e083015f8301516117a95f860182611518565b5060208301516117bc6020860182611518565b5060408301516117cf6040860182611557565b5060608301516117e26060860182611557565b5060808301516117f56080860182611518565b5060a083015161180860a0860182611518565b5060c083015184820360c086015261182082826115b8565b9150508091505092915050565b5f6020820190508181035f8301526118458184611794565b905092915050565b6118568161150f565b82525050565b61186581611546565b82525050565b5f82825260208201905092915050565b5f61188582611566565b61188f818561186b565b935061189f818560208601611580565b6118a8816115a8565b840191505092915050565b5f60e0820190506118c65f83018a61184d565b6118d3602083018961184d565b6118e0604083018861185c565b6118ed606083018761185c565b6118fa608083018661184d565b61190760a083018561184d565b81810360c0830152611919818461187b565b905098975050505050505050565b5f60208201905061193a5f83018461184d565b92915050565b61194981611546565b8114611953575f80fd5b50565b5f8135905061196481611940565b92915050565b5f80604083850312156119805761197f61173b565b5b5f61198d85828601611956565b925050602061199e85828601611755565b9150509250929050565b5f8115159050919050565b6119bc816119a8565b82525050565b5f6020820190506119d55f8301846119b3565b92915050565b5f602082840312156119f0576119ef61173b565b5b5f6119fd84828501611956565b91505092915050565b7f4e487b71000000000000000000000000000000000000000000000000000000005f52602260045260245ffd5b5f6002820490506001821680611a4a57607f821691505b602082108103611a5d57611a5c611a06565b5b50919050565b7f496e76616c6964205472616e73616374696f6e204944000000000000000000005f82015250565b5f611a9760168361186b565b9150611aa282611a63565b602082019050919050565b5f6020820190508181035f830152611ac481611a8b565b9050919050565b7f4e487b71000000000000000000000000000000000000000000000000000000005f52603260045260245ffd5b7f4e487b71000000000000000000000000000000000000000000000000000000005f52601160045260245ffd5b5f611b2f8261150f565b9150611b3a8361150f565b9250828202611b488161150f565b91508282048414831517611b5f57611b5e611af8565b5b5092915050565b7f4e487b71000000000000000000000000000000000000000000000000000000005f52601260045260245ffd5b5f611b9d8261150f565b9150611ba88361150f565b925082611bb857611bb7611b66565b5b828204905092915050565b5f611bcd8261150f565b9150611bd88361150f565b9250828201905080821115611bf057611bef611af8565b5b92915050565b5f602082019050611c095f83018461185c565b92915050565b5f81519050611c1d8161173f565b92915050565b5f60208284031215611c3857611c3761173b565b5b5f611c4584828501611c0f565b91505092915050565b7f496e73756666696369656e74206465706f73697420616d6f756e7400000000005f82015250565b5f611c82601b8361186b565b9150611c8d82611c4e565b602082019050919050565b5f6020820190508181035f830152611caf81611c76565b9050919050565b5f606082019050611cc95f83018661185c565b611cd6602083018561185c565b611ce3604083018461184d565b949350505050565b611cf4816119a8565b8114611cfe575f80fd5b50565b5f81519050611d0f81611ceb565b92915050565b5f60208284031215611d2a57611d2961173b565b5b5f611d3784828501611d01565b91505092915050565b7f4e487b71000000000000000000000000000000000000000000000000000000005f52604160045260245ffd5b5f819050815f5260205f209050919050565b5f6020601f8301049050919050565b5f82821b905092915050565b5f60088302611dc97fffffffffffffffffffffffffffffffffffffffffffffffffffffffffffffffff82611d8e565b611dd38683611d8e565b95508019841693508086168417925050509392505050565b5f819050919050565b5f611e0e611e09611e048461150f565b611deb565b61150f565b9050919050565b5f819050919050565b611e2783611df4565b611e3b611e3382611e15565b848454611d9a565b825550505050565b5f90565b611e4f611e43565b611e5a818484611e1e565b505050565b5b81811015611e7d57611e725f82611e47565b600181019050611e60565b5050565b601f821115611ec257611e9381611d6d565b611e9c84611d7f565b81016020851015611eab578190505b611ebf611eb785611d7f565b830182611e5f565b50505b505050565b5f82821c905092915050565b5f611ee25f1984600802611ec7565b1980831691505092915050565b5f611efa8383611ed3565b9150826002028217905092915050565b611f1382611566565b67ffffffffffffffff811115611f2c57611f2b611d40565b5b611f368254611a33565b611f41828285611e81565b5f60209050601f831160018114611f72575f8415611f60578287015190505b611f6a8582611eef565b865550611fd1565b601f198416611f8086611d6d565b5f5b82811015611fa757848901518255600182019150602085019450602081019050611f82565b86831015611fc45784890151611fc0601f891682611ed3565b8355505b6001600288020188555050505b505050505050565b5f606082019050611fec5f83018661185c565b611ff9602083018561184d565b612006604083018461184d565b94935050505056fea264697066735822122020ee41db28d53801dbada59ae400f35ee8a9dd03646326f52dadc57997400f8864736f6c634300081700336080604052601260025f6101000a81548160ff021916908360ff1602179055503480156200002b575f80fd5b506040516200167f3803806200167f833981810160405281019062000051919062000310565b835f9081620000619190620005eb565b508260019081620000739190620005eb565b5060025f9054906101000a900460ff16600a62000091919062000858565b826200009e9190620008a8565b60038190555060035460045f8373ffffffffffffffffffffffffffffffffffffffff1673ffffffffffffffffffffffffffffffffffffffff1681526020019081526020015f208190555050505050620008f2565b5f604051905090565b5f80fd5b5f80fd5b5f80fd5b5f80fd5b5f601f19601f8301169050919050565b7f4e487b71000000000000000000000000000000000000000000000000000000005f52604160045260245ffd5b62000153826200010b565b810181811067ffffffffffffffff821117156200017557620001746200011b565b5b80604052505050565b5f62000189620000f2565b905062000197828262000148565b919050565b5f67ffffffffffffffff821115620001b957620001b86200011b565b5b620001c4826200010b565b9050602081019050919050565b5f5b83811015620001f0578082015181840152602081019050620001d3565b5f8484015250505050565b5f620002116200020b846200019c565b6200017e565b90508281526020810184848401111562000230576200022f62000107565b5b6200023d848285620001d1565b509392505050565b5f82601f8301126200025c576200025b62000103565b5b81516200026e848260208601620001fb565b91505092915050565b5f819050919050565b6200028b8162000277565b811462000296575f80fd5b50565b5f81519050620002a98162000280565b92915050565b5f73ffffffffffffffffffffffffffffffffffffffff82169050919050565b5f620002da82620002af565b9050919050565b620002ec81620002ce565b8114620002f7575f80fd5b50565b5f815190506200030a81620002e1565b92915050565b5f805f80608085870312156200032b576200032a620000fb565b5b5f85015167ffffffffffffffff8111156200034b576200034a620000ff565b5b620003598782880162000245565b945050602085015167ffffffffffffffff8111156200037d576200037c620000ff565b5b6200038b8782880162000245565b93505060406200039e8782880162000299565b9250506060620003b187828801620002fa565b91505092959194509250565b5f81519050919050565b7f4e487b71000000000000000000000000000000000000000000000000000000005f52602260045260245ffd5b5f60028204905060018216806200040c57607f821691505b602082108103620004225762000421620003c7565b5b50919050565b5f819050815f5260205f209050919050565b5f6020601f8301049050919050565b5f82821b905092915050565b5f60088302620004867fffffffffffffffffffffffffffffffffffffffffffffffffffffffffffffffff8262000449565b62000492868362000449565b95508019841693508086168417925050509392505050565b5f819050919050565b5f620004d3620004cd620004c78462000277565b620004aa565b62000277565b9050919050565b5f819050919050565b620004ee83620004b3565b62000506620004fd82620004da565b84845462000455565b825550505050565b5f90565b6200051c6200050e565b62000529818484620004e3565b505050565b5b818110156200055057620005445f8262000512565b6001810190506200052f565b5050565b601f8211156200059f57620005698162000428565b62000574846200043a565b8101602085101562000584578190505b6200059c62000593856200043a565b8301826200052e565b50505b505050565b5f82821c905092915050565b5f620005c15f1984600802620005a4565b1980831691505092915050565b5f620005db8383620005b0565b9150826002028217905092915050565b620005f682620003bd565b67ffffffffffffffff8111156200061257620006116200011b565b5b6200061e8254620003f4565b6200062b82828562000554565b5f60209050601f83116001811462000661575f84156200064c578287015190505b620006588582620005ce565b865550620006c7565b601f198416620006718662000428565b5f5b828110156200069a5784890151825560018201915060208501945060208101905062000673565b86831015620006ba5784890151620006b6601f891682620005b0565b8355505b6001600288020188555050505b505050505050565b7f4e487b71000000000000000000000000000000000000000000000000000000005f52601160045260245ffd5b5f8160011c9050919050565b5f808291508390505b60018511156200075957808604811115620007315762000730620006cf565b5b6001851615620007415780820291505b80810290506200075185620006fc565b945062000711565b94509492505050565b5f8262000773576001905062000845565b8162000782575f905062000845565b81600181146200079b5760028114620007a657620007dc565b600191505062000845565b60ff841115620007bb57620007ba620006cf565b5b8360020a915084821115620007d557620007d4620006cf565b5b5062000845565b5060208310610133831016604e8410600b8410161715620008165782820a90508381111562000810576200080f620006cf565b5b62000845565b62000825848484600162000708565b925090508184048111156200083f576200083e620006cf565b5b81810290505b9392505050565b5f60ff82169050919050565b5f620008648262000277565b915062000871836200084c565b9250620008a07fffffffffffffffffffffffffffffffffffffffffffffffffffffffffffffffff848462000762565b905092915050565b5f620008b48262000277565b9150620008c18362000277565b9250828202620008d18162000277565b91508282048414831517620008eb57620008ea620006cf565b5b5092915050565b610d7f80620009005f395ff3fe608060405234801561000f575f80fd5b50600436106100b2575f3560e01c80636da1339c1161006f5780636da1339c146101a057806370a08231146101d057806395d89b4114610200578063a9059cbb1461021e578063b790a77b1461024e578063ee21aa641461027e576100b2565b806306fdde03146100b6578063095ea7b3146100d457806318160ddd1461010457806323b872dd1461012257806330e0789e14610152578063313ce56714610182575b5f80fd5b6100be6102ae565b6040516100cb9190610990565b60405180910390f35b6100ee60048036038101906100e99190610a41565b610339565b6040516100fb9190610a99565b60405180910390f35b61010c610417565b6040516101199190610ac1565b60405180910390f35b61013c60048036038101906101379190610ada565b61041d565b6040516101499190610a99565b60405180910390f35b61016c60048036038101906101679190610ada565b6104b5565b6040516101799190610a99565b60405180910390f35b61018a6106ba565b6040516101979190610b45565b60405180910390f35b6101ba60048036038101906101b59190610a41565b6106cc565b6040516101c79190610a99565b60405180910390f35b6101ea60048036038101906101e59190610b5e565b61072a565b6040516101f79190610ac1565b60405180910390f35b61020861073f565b6040516102159190610990565b60405180910390f35b61023860048036038101906102339190610a41565b6107cb565b6040516102459190610a99565b60405180910390f35b61026860048036038101906102639190610a41565b610862565b6040516102759190610a99565b60405180910390f35b61029860048036038101906102939190610b5e565b6108c0565b6040516102a59190610ac1565b60405180910390f35b5f80546102ba90610bb6565b80601f01602080910402602001604051908101604052809291908181526020018280546102e690610bb6565b80156103315780601f1061030857610100808354040283529160200191610331565b820191905f5260205f20905b81548152906001019060200180831161031457829003601f168201915b505050505081565b5f8073ffffffffffffffffffffffffffffffffffffffff168373ffffffffffffffffffffffffffffffffffffffff16036103a8576040517f08c379a000000000000000000000000000000000000000000000000000000000815260040161039f90610c30565b60405180910390fd5b8273ffffffffffffffffffffffffffffffffffffffff163373ffffffffffffffffffffffffffffffffffffffff167f8c5be1e5ebec7d5bd14f71427d1e84f3dd0314c0f7b2291e5b200ac8c7c3b925846040516104059190610ac1565b60405180910390a36001905092915050565b60035481565b5f60045f8573ffffffffffffffffffffffffffffffffffffffff1673ffffffffffffffffffffffffffffffffffffffff1681526020019081526020015f205482111561049e576040517f08c379a000000000000000000000000000000000000000000000000000000000815260040161049590610c98565b60405180910390fd5b6104a98484846104b5565b50600190509392505050565b5f8073ffffffffffffffffffffffffffffffffffffffff168373ffffffffffffffffffffffffffffffffffffffff1603610524576040517f08c379a000000000000000000000000000000000000000000000000000000000815260040161051b90610c30565b60405180910390fd5b8160045f8673ffffffffffffffffffffffffffffffffffffffff1673ffffffffffffffffffffffffffffffffffffffff1681526020019081526020015f205410156105a4576040517f08c379a000000000000000000000000000000000000000000000000000000000815260040161059b90610c98565b60405180910390fd5b8160045f8673ffffffffffffffffffffffffffffffffffffffff1673ffffffffffffffffffffffffffffffffffffffff1681526020019081526020015f205f8282546105f09190610ce3565b925050819055508160045f8573ffffffffffffffffffffffffffffffffffffffff1673ffffffffffffffffffffffffffffffffffffffff1681526020019081526020015f205f8282546106439190610d16565b925050819055508273ffffffffffffffffffffffffffffffffffffffff168473ffffffffffffffffffffffffffffffffffffffff167fddf252ad1be2c89b69c2b068fc378daa952ba7f163c4a11628f55a4df523b3ef846040516106a79190610ac1565b60405180910390a3600190509392505050565b60025f9054906101000a900460ff1681565b5f8160045f8573ffffffffffffffffffffffffffffffffffffffff1673ffffffffffffffffffffffffffffffffffffffff1681526020019081526020015f205f8282546107199190610d16565b925050819055506001905092915050565b6004602052805f5260405f205f915090505481565b6001805461074c90610bb6565b80601f016020809104026020016040519081016040528092919081815260200182805461077890610bb6565b80156107c35780601f1061079a576101008083540402835291602001916107c3565b820191905f5260205f20905b8154815290600101906020018083116107a657829003601f168201915b505050505081565b5f8160045f3373ffffffffffffffffffffffffffffffffffffffff1673ffffffffffffffffffffffffffffffffffffffff1681526020019081526020015f2054101561084c576040517f08c379a000000000000000000000000000000000000000000000000000000000815260040161084390610c98565b60405180910390fd5b6108573384846104b5565b506001905092915050565b5f8160045f8573ffffffffffffffffffffffffffffffffffffffff1673ffffffffffffffffffffffffffffffffffffffff1681526020019081526020015f205f8282546108af9190610ce3565b925050819055506001905092915050565b5f60045f8373ffffffffffffffffffffffffffffffffffffffff1673ffffffffffffffffffffffffffffffffffffffff1681526020019081526020015f20549050919050565b5f81519050919050565b5f82825260208201905092915050565b5f5b8381101561093d578082015181840152602081019050610922565b5f8484015250505050565b5f601f19601f8301169050919050565b5f61096282610906565b61096c8185610910565b935061097c818560208601610920565b61098581610948565b840191505092915050565b5f6020820190508181035f8301526109a88184610958565b905092915050565b5f80fd5b5f73ffffffffffffffffffffffffffffffffffffffff82169050919050565b5f6109dd826109b4565b9050919050565b6109ed816109d3565b81146109f7575f80fd5b50565b5f81359050610a08816109e4565b92915050565b5f819050919050565b610a2081610a0e565b8114610a2a575f80fd5b50565b5f81359050610a3b81610a17565b92915050565b5f8060408385031215610a5757610a566109b0565b5b5f610a64858286016109fa565b9250506020610a7585828601610a2d565b9150509250929050565b5f8115159050919050565b610a9381610a7f565b82525050565b5f602082019050610aac5f830184610a8a565b92915050565b610abb81610a0e565b82525050565b5f602082019050610ad45f830184610ab2565b92915050565b5f805f60608486031215610af157610af06109b0565b5b5f610afe868287016109fa565b9350506020610b0f868287016109fa565b9250506040610b2086828701610a2d565b9150509250925092565b5f60ff82169050919050565b610b3f81610b2a565b82525050565b5f602082019050610b585f830184610b36565b92915050565b5f60208284031215610b7357610b726109b0565b5b5f610b80848285016109fa565b91505092915050565b7f4e487b71000000000000000000000000000000000000000000000000000000005f52602260045260245ffd5b5f6002820490506001821680610bcd57607f821691505b602082108103610be057610bdf610b89565b5b50919050565b7f496e76616c6964206164647265737300000000000000000000000000000000005f82015250565b5f610c1a600f83610910565b9150610c2582610be6565b602082019050919050565b5f6020820190508181035f830152610c4781610c0e565b9050919050565b7f496e73756666696369656e742062616c616e63650000000000000000000000005f82015250565b5f610c82601483610910565b9150610c8d82610c4e565b602082019050919050565b5f6020820190508181035f830152610caf81610c76565b9050919050565b7f4e487b71000000000000000000000000000000000000000000000000000000005f52601160045260245ffd5b5f610ced82610a0e565b9150610cf883610a0e565b9250828203905081811115610d1057610d0f610cb6565b5b92915050565b5f610d2082610a0e565b9150610d2b83610a0e565b9250828201905080821115610d4357610d42610cb6565b5b9291505056fea264697066735822122072e76eb8a6284dd1315d0c0c072f368891de385e1376cf992f9cfa293f5c786964736f6c63430008170033",
  "immutableReferences": {},
  "source": "//SPDX-License-Identifier: MIT\r\npragma solidity ^0.8.0;\r\nimport \"./token.sol\";\r\n\r\ncontract basic{\r\n    \r\n    struct transaction{\r\n        uint256 id;\r\n        uint256 timestamp;\r\n        address sender;\r\n        address receiver;\r\n        uint256 amount;\r\n        uint256 charges;\r\n        string status;\r\n        \r\n    }\r\n    uint counter;\r\n    transaction[] public Transactions;\r\n    Token token=new Token(\"Rizzler\",\"RIZZ\",100000,address(this));\r\n    \r\n    // address owner;\r\n    uint percentCommission;\r\n    constructor(uint _commission){\r\n        percentCommission=_commission; \r\n        counter=0;\r\n    }\r\n    // mapping (address => uint) balance;\r\n    \r\n    event Deposit(\r\n        address user,\r\n        uint256 amount,\r\n        uint256 balance\r\n    );\r\n    event Withdraw(\r\n        address user,\r\n        uint256 amount,\r\n        uint256 balance\r\n    );\r\n    event Transfer(\r\n        address from,\r\n        address to,\r\n        uint256 balance\r\n    );\r\n    function depositToken(uint256 _amount) public {\r\n        uint256 commissionAmt = (percentCommission * _amount) / 100;\r\n        uint256 realAmount = _amount;\r\n        _amount += commissionAmt;\r\n        require(_amount <= token._getBalance(address(this)));\r\n        unchecked {\r\n            counter++;\r\n        }\r\n        // Create the transaction and update its status before pushing\r\n        transaction memory transact = transaction(counter, block.timestamp, address(this), msg.sender, realAmount, commissionAmt, \"FAILED\");\r\n        require(token.transferFrom(address(this), msg.sender, realAmount));\r\n        // Update the status to \"SUCCESSFUL\"\r\n        transact.status = \"SUCCESSFUL\";\r\n        // Push the transaction into the array\r\n        Transactions.push(transact);\r\n        emit Deposit(msg.sender, _amount, token._getBalance(msg.sender));\r\n    }\r\n\r\n    function balanceOf() public view returns(uint256){\r\n        return token._getBalance(msg.sender);\r\n    }\r\n    function findBalance(address addr) public view returns(uint256){\r\n        return token._getBalance(addr);\r\n    }\r\n    \r\n    function withdrawToken(uint256 _amount) public {\r\n        uint256 commissionAmt = (percentCommission * _amount) / 100;\r\n        uint256 realAmount = _amount;\r\n        _amount += commissionAmt;\r\n        require(token._getBalance(msg.sender) >= _amount, \"Insufficient deposit amount\");\r\n        unchecked {\r\n            counter++;\r\n        }\r\n        transaction memory transact = transaction(counter, block.timestamp, msg.sender, address(this), realAmount, commissionAmt, \"FAILED\");\r\n        require(token.transferFrom(msg.sender, address(this), _amount));\r\n        // Create the transaction and update its status before storing\r\n        transact.status = \"SUCCESSFUL\";\r\n        // Store the transaction in the array\r\n        Transactions.push(transact);\r\n        emit Withdraw(msg.sender, _amount, token._getBalance(msg.sender));\r\n    }\r\n\r\n    function transfer(address to, uint256 amount) public returns(bool){\r\n        uint256 commissionAmt=(percentCommission * amount)/100;\r\n        uint256 realAmount=amount;\r\n        amount+=commissionAmt;\r\n        unchecked {\r\n            counter++;\r\n        }\r\n        transaction memory transact = transaction(counter,block.timestamp,msg.sender,to,realAmount,commissionAmt,\"FAILED\");\r\n        require(token._transfer(msg.sender, to,realAmount));\r\n        require(token._transfer(msg.sender, address(this),commissionAmt));\r\n        transact.status = \"SUCCESSFUL\";\r\n        Transactions.push(transact);\r\n        emit Transfer(msg.sender,to,token._getBalance(msg.sender));\r\n        return true;\r\n    }\r\n\r\n    function getTransaction(uint256 _id) public view returns(transaction memory){\r\n        require(_id>0 && _id<=counter,\"Invalid Transaction ID\");\r\n        transaction storage _transact = Transactions[_id];\r\n        return _transact;\r\n    }\r\n\r\n    function getAllTransactions() public view returns(transaction[] memory){\r\n        return Transactions;\r\n    }\r\n\r\n}",
  "sourcePath": "C:\\Users\\satya\\Cross-border-Payment\\contracts\\basic.sol",
  "compiler": {
    "name": "solc",
    "version": "0.8.23+commit.f704f362.Emscripten.clang"
  },
  "schemaVersion": "3.4.16",
  "updatedAt": "2023-11-26T09:45:38.045Z",
  "networkType": "ethereum",
  "devdoc": {
    "kind": "dev",
    "methods": {},
    "version": 1
  },
  "userdoc": {
    "kind": "user",
    "methods": {},
    "version": 1
  }
}