{
  "contractName": "Token",
  "abi": [
    {
      "inputs": [
        {
          "internalType": "string",
          "name": "_name",
          "type": "string"
        },
        {
          "internalType": "string",
          "name": "_symbol",
          "type": "string"
        },
        {
          "internalType": "uint256",
          "name": "_totalSupply",
          "type": "uint256"
        },
        {
          "internalType": "address",
          "name": "addr",
          "type": "address"
        }
      ],
      "stateMutability": "nonpayable",
      "type": "constructor"
    },
    {
      "anonymous": false,
      "inputs": [
        {
          "indexed": true,
          "internalType": "address",
          "name": "owner",
          "type": "address"
        },
        {
          "indexed": true,
          "internalType": "address",
          "name": "spender",
          "type": "address"
        },
        {
          "indexed": false,
          "internalType": "uint256",
          "name": "value",
          "type": "uint256"
        }
      ],
      "name": "Approval",
      "type": "event"
    },
    {
      "anonymous": false,
      "inputs": [
        {
          "indexed": true,
          "internalType": "address",
          "name": "from",
          "type": "address"
        },
        {
          "indexed": true,
          "internalType": "address",
          "name": "to",
          "type": "address"
        },
        {
          "indexed": false,
          "internalType": "uint256",
          "name": "value",
          "type": "uint256"
        }
      ],
      "name": "Transfer",
      "type": "event"
    },
    {
      "inputs": [
        {
          "internalType": "address",
          "name": "",
          "type": "address"
        }
      ],
      "name": "balanceOf",
      "outputs": [
        {
          "internalType": "uint256",
          "name": "",
          "type": "uint256"
        }
      ],
      "stateMutability": "view",
      "type": "function"
    },
    {
      "inputs": [],
      "name": "decimals",
      "outputs": [
        {
          "internalType": "uint8",
          "name": "",
          "type": "uint8"
        }
      ],
      "stateMutability": "view",
      "type": "function"
    },
    {
      "inputs": [],
      "name": "name",
      "outputs": [
        {
          "internalType": "string",
          "name": "",
          "type": "string"
        }
      ],
      "stateMutability": "view",
      "type": "function"
    },
    {
      "inputs": [],
      "name": "symbol",
      "outputs": [
        {
          "internalType": "string",
          "name": "",
          "type": "string"
        }
      ],
      "stateMutability": "view",
      "type": "function"
    },
    {
      "inputs": [],
      "name": "totalSupply",
      "outputs": [
        {
          "internalType": "uint256",
          "name": "",
          "type": "uint256"
        }
      ],
      "stateMutability": "view",
      "type": "function"
    },
    {
      "inputs": [
        {
          "internalType": "address",
          "name": "sender",
          "type": "address"
        },
        {
          "internalType": "uint256",
          "name": "amount",
          "type": "uint256"
        }
      ],
      "name": "_deposit",
      "outputs": [
        {
          "internalType": "bool",
          "name": "",
          "type": "bool"
        }
      ],
      "stateMutability": "nonpayable",
      "type": "function"
    },
    {
      "inputs": [
        {
          "internalType": "address",
          "name": "sender",
          "type": "address"
        }
      ],
      "name": "_getBalance",
      "outputs": [
        {
          "internalType": "uint256",
          "name": "",
          "type": "uint256"
        }
      ],
      "stateMutability": "view",
      "type": "function"
    },
    {
      "inputs": [
        {
          "internalType": "address",
          "name": "sender",
          "type": "address"
        },
        {
          "internalType": "uint256",
          "name": "amount",
          "type": "uint256"
        }
      ],
      "name": "_withdraw",
      "outputs": [
        {
          "internalType": "bool",
          "name": "",
          "type": "bool"
        }
      ],
      "stateMutability": "nonpayable",
      "type": "function"
    },
    {
      "inputs": [
        {
          "internalType": "address",
          "name": "_from",
          "type": "address"
        },
        {
          "internalType": "address",
          "name": "_to",
          "type": "address"
        },
        {
          "internalType": "uint256",
          "name": "_value",
          "type": "uint256"
        }
      ],
      "name": "_transfer",
      "outputs": [
        {
          "internalType": "bool",
          "name": "",
          "type": "bool"
        }
      ],
      "stateMutability": "nonpayable",
      "type": "function"
    },
    {
      "inputs": [
        {
          "internalType": "address",
          "name": "_to",
          "type": "address"
        },
        {
          "internalType": "uint256",
          "name": "_value",
          "type": "uint256"
        }
      ],
      "name": "transfer",
      "outputs": [
        {
          "internalType": "bool",
          "name": "success",
          "type": "bool"
        }
      ],
      "stateMutability": "nonpayable",
      "type": "function"
    },
    {
      "inputs": [
        {
          "internalType": "address",
          "name": "_spender",
          "type": "address"
        },
        {
          "internalType": "uint256",
          "name": "_value",
          "type": "uint256"
        }
      ],
      "name": "approve",
      "outputs": [
        {
          "internalType": "bool",
          "name": "success",
          "type": "bool"
        }
      ],
      "stateMutability": "nonpayable",
      "type": "function"
    },
    {
      "inputs": [
        {
          "internalType": "address",
          "name": "_from",
          "type": "address"
        },
        {
          "internalType": "address",
          "name": "_to",
          "type": "address"
        },
        {
          "internalType": "uint256",
          "name": "_value",
          "type": "uint256"
        }
      ],
      "name": "transferFrom",
      "outputs": [
        {
          "internalType": "bool",
          "name": "success",
          "type": "bool"
        }
      ],
      "stateMutability": "nonpayable",
      "type": "function"
    }
  ],
  "bytecode": "0x6080604052601260025f6101000a81548160ff021916908360ff1602179055503480156200002b575f80fd5b506040516200167f3803806200167f833981810160405281019062000051919062000310565b835f9081620000619190620005eb565b508260019081620000739190620005eb565b5060025f9054906101000a900460ff16600a62000091919062000858565b826200009e9190620008a8565b60038190555060035460045f8373ffffffffffffffffffffffffffffffffffffffff1673ffffffffffffffffffffffffffffffffffffffff1681526020019081526020015f208190555050505050620008f2565b5f604051905090565b5f80fd5b5f80fd5b5f80fd5b5f80fd5b5f601f19601f8301169050919050565b7f4e487b71000000000000000000000000000000000000000000000000000000005f52604160045260245ffd5b62000153826200010b565b810181811067ffffffffffffffff821117156200017557620001746200011b565b5b80604052505050565b5f62000189620000f2565b905062000197828262000148565b919050565b5f67ffffffffffffffff821115620001b957620001b86200011b565b5b620001c4826200010b565b9050602081019050919050565b5f5b83811015620001f0578082015181840152602081019050620001d3565b5f8484015250505050565b5f620002116200020b846200019c565b6200017e565b90508281526020810184848401111562000230576200022f62000107565b5b6200023d848285620001d1565b509392505050565b5f82601f8301126200025c576200025b62000103565b5b81516200026e848260208601620001fb565b91505092915050565b5f819050919050565b6200028b8162000277565b811462000296575f80fd5b50565b5f81519050620002a98162000280565b92915050565b5f73ffffffffffffffffffffffffffffffffffffffff82169050919050565b5f620002da82620002af565b9050919050565b620002ec81620002ce565b8114620002f7575f80fd5b50565b5f815190506200030a81620002e1565b92915050565b5f805f80608085870312156200032b576200032a620000fb565b5b5f85015167ffffffffffffffff8111156200034b576200034a620000ff565b5b620003598782880162000245565b945050602085015167ffffffffffffffff8111156200037d576200037c620000ff565b5b6200038b8782880162000245565b93505060406200039e8782880162000299565b9250506060620003b187828801620002fa565b91505092959194509250565b5f81519050919050565b7f4e487b71000000000000000000000000000000000000000000000000000000005f52602260045260245ffd5b5f60028204905060018216806200040c57607f821691505b602082108103620004225762000421620003c7565b5b50919050565b5f819050815f5260205f209050919050565b5f6020601f8301049050919050565b5f82821b905092915050565b5f60088302620004867fffffffffffffffffffffffffffffffffffffffffffffffffffffffffffffffff8262000449565b62000492868362000449565b95508019841693508086168417925050509392505050565b5f819050919050565b5f620004d3620004cd620004c78462000277565b620004aa565b62000277565b9050919050565b5f819050919050565b620004ee83620004b3565b62000506620004fd82620004da565b84845462000455565b825550505050565b5f90565b6200051c6200050e565b62000529818484620004e3565b505050565b5b818110156200055057620005445f8262000512565b6001810190506200052f565b5050565b601f8211156200059f57620005698162000428565b62000574846200043a565b8101602085101562000584578190505b6200059c62000593856200043a565b8301826200052e565b50505b505050565b5f82821c905092915050565b5f620005c15f1984600802620005a4565b1980831691505092915050565b5f620005db8383620005b0565b9150826002028217905092915050565b620005f682620003bd565b67ffffffffffffffff8111156200061257620006116200011b565b5b6200061e8254620003f4565b6200062b82828562000554565b5f60209050601f83116001811462000661575f84156200064c578287015190505b620006588582620005ce565b865550620006c7565b601f198416620006718662000428565b5f5b828110156200069a5784890151825560018201915060208501945060208101905062000673565b86831015620006ba5784890151620006b6601f891682620005b0565b8355505b6001600288020188555050505b505050505050565b7f4e487b71000000000000000000000000000000000000000000000000000000005f52601160045260245ffd5b5f8160011c9050919050565b5f808291508390505b60018511156200075957808604811115620007315762000730620006cf565b5b6001851615620007415780820291505b80810290506200075185620006fc565b945062000711565b94509492505050565b5f8262000773576001905062000845565b8162000782575f905062000845565b81600181146200079b5760028114620007a657620007dc565b600191505062000845565b60ff841115620007bb57620007ba620006cf565b5b8360020a915084821115620007d557620007d4620006cf565b5b5062000845565b5060208310610133831016604e8410600b8410161715620008165782820a90508381111562000810576200080f620006cf565b5b62000845565b62000825848484600162000708565b925090508184048111156200083f576200083e620006cf565b5b81810290505b9392505050565b5f60ff82169050919050565b5f620008648262000277565b915062000871836200084c565b9250620008a07fffffffffffffffffffffffffffffffffffffffffffffffffffffffffffffffff848462000762565b905092915050565b5f620008b48262000277565b9150620008c18362000277565b9250828202620008d18162000277565b91508282048414831517620008eb57620008ea620006cf565b5b5092915050565b610d7f80620009005f395ff3fe608060405234801561000f575f80fd5b50600436106100b2575f3560e01c80636da1339c1161006f5780636da1339c146101a057806370a08231146101d057806395d89b4114610200578063a9059cbb1461021e578063b790a77b1461024e578063ee21aa641461027e576100b2565b806306fdde03146100b6578063095ea7b3146100d457806318160ddd1461010457806323b872dd1461012257806330e0789e14610152578063313ce56714610182575b5f80fd5b6100be6102ae565b6040516100cb9190610990565b60405180910390f35b6100ee60048036038101906100e99190610a41565b610339565b6040516100fb9190610a99565b60405180910390f35b61010c610417565b6040516101199190610ac1565b60405180910390f35b61013c60048036038101906101379190610ada565b61041d565b6040516101499190610a99565b60405180910390f35b61016c60048036038101906101679190610ada565b6104b5565b6040516101799190610a99565b60405180910390f35b61018a6106ba565b6040516101979190610b45565b60405180910390f35b6101ba60048036038101906101b59190610a41565b6106cc565b6040516101c79190610a99565b60405180910390f35b6101ea60048036038101906101e59190610b5e565b61072a565b6040516101f79190610ac1565b60405180910390f35b61020861073f565b6040516102159190610990565b60405180910390f35b61023860048036038101906102339190610a41565b6107cb565b6040516102459190610a99565b60405180910390f35b61026860048036038101906102639190610a41565b610862565b6040516102759190610a99565b60405180910390f35b61029860048036038101906102939190610b5e565b6108c0565b6040516102a59190610ac1565b60405180910390f35b5f80546102ba90610bb6565b80601f01602080910402602001604051908101604052809291908181526020018280546102e690610bb6565b80156103315780601f1061030857610100808354040283529160200191610331565b820191905f5260205f20905b81548152906001019060200180831161031457829003601f168201915b505050505081565b5f8073ffffffffffffffffffffffffffffffffffffffff168373ffffffffffffffffffffffffffffffffffffffff16036103a8576040517f08c379a000000000000000000000000000000000000000000000000000000000815260040161039f90610c30565b60405180910390fd5b8273ffffffffffffffffffffffffffffffffffffffff163373ffffffffffffffffffffffffffffffffffffffff167f8c5be1e5ebec7d5bd14f71427d1e84f3dd0314c0f7b2291e5b200ac8c7c3b925846040516104059190610ac1565b60405180910390a36001905092915050565b60035481565b5f60045f8573ffffffffffffffffffffffffffffffffffffffff1673ffffffffffffffffffffffffffffffffffffffff1681526020019081526020015f205482111561049e576040517f08c379a000000000000000000000000000000000000000000000000000000000815260040161049590610c98565b60405180910390fd5b6104a98484846104b5565b50600190509392505050565b5f8073ffffffffffffffffffffffffffffffffffffffff168373ffffffffffffffffffffffffffffffffffffffff1603610524576040517f08c379a000000000000000000000000000000000000000000000000000000000815260040161051b90610c30565b60405180910390fd5b8160045f8673ffffffffffffffffffffffffffffffffffffffff1673ffffffffffffffffffffffffffffffffffffffff1681526020019081526020015f205410156105a4576040517f08c379a000000000000000000000000000000000000000000000000000000000815260040161059b90610c98565b60405180910390fd5b8160045f8673ffffffffffffffffffffffffffffffffffffffff1673ffffffffffffffffffffffffffffffffffffffff1681526020019081526020015f205f8282546105f09190610ce3565b925050819055508160045f8573ffffffffffffffffffffffffffffffffffffffff1673ffffffffffffffffffffffffffffffffffffffff1681526020019081526020015f205f8282546106439190610d16565b925050819055508273ffffffffffffffffffffffffffffffffffffffff168473ffffffffffffffffffffffffffffffffffffffff167fddf252ad1be2c89b69c2b068fc378daa952ba7f163c4a11628f55a4df523b3ef846040516106a79190610ac1565b60405180910390a3600190509392505050565b60025f9054906101000a900460ff1681565b5f8160045f8573ffffffffffffffffffffffffffffffffffffffff1673ffffffffffffffffffffffffffffffffffffffff1681526020019081526020015f205f8282546107199190610d16565b925050819055506001905092915050565b6004602052805f5260405f205f915090505481565b6001805461074c90610bb6565b80601f016020809104026020016040519081016040528092919081815260200182805461077890610bb6565b80156107c35780601f1061079a576101008083540402835291602001916107c3565b820191905f5260205f20905b8154815290600101906020018083116107a657829003601f168201915b505050505081565b5f8160045f3373ffffffffffffffffffffffffffffffffffffffff1673ffffffffffffffffffffffffffffffffffffffff1681526020019081526020015f2054101561084c576040517f08c379a000000000000000000000000000000000000000000000000000000000815260040161084390610c98565b60405180910390fd5b6108573384846104b5565b506001905092915050565b5f8160045f8573ffffffffffffffffffffffffffffffffffffffff1673ffffffffffffffffffffffffffffffffffffffff1681526020019081526020015f205f8282546108af9190610ce3565b925050819055506001905092915050565b5f60045f8373ffffffffffffffffffffffffffffffffffffffff1673ffffffffffffffffffffffffffffffffffffffff1681526020019081526020015f20549050919050565b5f81519050919050565b5f82825260208201905092915050565b5f5b8381101561093d578082015181840152602081019050610922565b5f8484015250505050565b5f601f19601f8301169050919050565b5f61096282610906565b61096c8185610910565b935061097c818560208601610920565b61098581610948565b840191505092915050565b5f6020820190508181035f8301526109a88184610958565b905092915050565b5f80fd5b5f73ffffffffffffffffffffffffffffffffffffffff82169050919050565b5f6109dd826109b4565b9050919050565b6109ed816109d3565b81146109f7575f80fd5b50565b5f81359050610a08816109e4565b92915050565b5f819050919050565b610a2081610a0e565b8114610a2a575f80fd5b50565b5f81359050610a3b81610a17565b92915050565b5f8060408385031215610a5757610a566109b0565b5b5f610a64858286016109fa565b9250506020610a7585828601610a2d565b9150509250929050565b5f8115159050919050565b610a9381610a7f565b82525050565b5f602082019050610aac5f830184610a8a565b92915050565b610abb81610a0e565b82525050565b5f602082019050610ad45f830184610ab2565b92915050565b5f805f60608486031215610af157610af06109b0565b5b5f610afe868287016109fa565b9350506020610b0f868287016109fa565b9250506040610b2086828701610a2d565b9150509250925092565b5f60ff82169050919050565b610b3f81610b2a565b82525050565b5f602082019050610b585f830184610b36565b92915050565b5f60208284031215610b7357610b726109b0565b5b5f610b80848285016109fa565b91505092915050565b7f4e487b71000000000000000000000000000000000000000000000000000000005f52602260045260245ffd5b5f6002820490506001821680610bcd57607f821691505b602082108103610be057610bdf610b89565b5b50919050565b7f496e76616c6964206164647265737300000000000000000000000000000000005f82015250565b5f610c1a600f83610910565b9150610c2582610be6565b602082019050919050565b5f6020820190508181035f830152610c4781610c0e565b9050919050565b7f496e73756666696369656e742062616c616e63650000000000000000000000005f82015250565b5f610c82601483610910565b9150610c8d82610c4e565b602082019050919050565b5f6020820190508181035f830152610caf81610c76565b9050919050565b7f4e487b71000000000000000000000000000000000000000000000000000000005f52601160045260245ffd5b5f610ced82610a0e565b9150610cf883610a0e565b9250828203905081811115610d1057610d0f610cb6565b5b92915050565b5f610d2082610a0e565b9150610d2b83610a0e565b9250828201905080821115610d4357610d42610cb6565b5b9291505056fea264697066735822122072e76eb8a6284dd1315d0c0c072f368891de385e1376cf992f9cfa293f5c786964736f6c63430008170033",
  "immutableReferences": {},
  "source": "// SPDX-License-Identifier: MIT\r\npragma solidity ^0.8.0;\r\n\r\ncontract Token{\r\n    string public name;\r\n    string public symbol;\r\n    uint8 public decimals=18;\r\n    uint256 public totalSupply;\r\n\r\n    mapping(address=>uint256) public balanceOf;\r\n    // mapping(address=>mapping(address=>uint256)) public allowance;\r\n\r\n    event Transfer(address indexed from, address indexed to, uint256 value);\r\n    event Approval(address indexed owner,address indexed spender,uint256 value);\r\n\r\n    constructor(string memory _name,string memory _symbol,uint256 _totalSupply,address addr){\r\n        name=_name;\r\n        symbol=_symbol;\r\n        totalSupply=_totalSupply*(10**decimals);\r\n        balanceOf[addr]=totalSupply;\r\n    }\r\n\r\n    function _deposit(address sender, uint256 amount) public returns(bool){\r\n        balanceOf[sender]+=amount;\r\n        return true;\r\n    }\r\n    function _getBalance(address sender) public view returns(uint256){\r\n        return balanceOf[sender];\r\n    }\r\n    function _withdraw(address sender, uint256 amount) public returns(bool){\r\n        balanceOf[sender]-=amount;\r\n        return true;\r\n    }\r\n    function _transfer(address _from, address _to, uint256 _value) public returns(bool){\r\n        require(_to!=address(0),\"Invalid address\");\r\n        require(balanceOf[_from]>=_value,\"Insufficient balance\");\r\n        balanceOf[_from]-=_value;\r\n        balanceOf[_to]+=_value;\r\n        emit Transfer(_from,_to,_value);\r\n        return true;\r\n    }\r\n\r\n    function transfer(address _to, uint256 _value) public returns(bool success){\r\n        require(balanceOf[msg.sender]>=_value,\"Insufficient balance\");\r\n       _transfer(msg.sender,_to,_value);\r\n        return true;\r\n    }\r\n\r\n    function approve(address _spender, uint256 _value) public returns(bool success){\r\n         require(_spender!=address(0),\"Invalid address\");\r\n        //  allowance[msg.sender][_spender]=_value;\r\n         emit Approval(msg.sender,_spender,_value);\r\n         return true;\r\n    }\r\n\r\n  function transferFrom(address _from, address _to, uint _value) public returns (bool success){\r\n     require(_value<=balanceOf[_from],\"Insufficient balance\");\r\n    //  require(_value<=allowance[_from][msg.sender],\"Insufficient allowance\");\r\n    //  allowance[_from][msg.sender]-=_value;\r\n     _transfer(_from, _to, _value);\r\n     return true;\r\n  }\r\n\r\n}",
  "sourcePath": "C:\\Users\\satya\\Cross-border-Payment\\contracts\\token.sol",
  "compiler": {
    "name": "solc",
    "version": "0.8.23+commit.f704f362.Emscripten.clang"
  },
  "schemaVersion": "3.4.16",
  "updatedAt": "2023-11-26T09:44:39.498Z",
  "devdoc": {
    "kind": "dev",
    "methods": {},
    "version": 1
  },
  "userdoc": {
    "kind": "user",
    "methods": {},
    "version": 1
  }
}